:020000040800F2
:10000000880A0020550100088D0900086B050008CA
:1000100000000000000000000000000000000000E0
:10002000000000000000000000000000F1090008CE
:10003000000000000000000091090008F509000818
:100040006701000800000000670100086701000860
:1000500067010008670100086701000867010008E0
:100060000000000067010008670100086701000840
:100070006701000867010008670100080000000030
:100080006701000800000000000000006701000890
:100090000000000067010008670100087105000802
:1000A0000000000067010008000000006701000870
:1000B00000F002F800F03EF80CA030C80838241810
:1000C0002D18A246671EAB4654465D46AC4201D190
:1000D00000F030F87E460F3E0FCCB6460126334284
:1000E00000D0FB1AA246AB46334318476C0C000005
:1000F0008C0C0000103A02D378C878C1FAD85207A5
:1001000001D330C830C101D504680C6070470000CD
:100110000023002400250026103A01D378C1FBD823
:10012000520700D330C100D50B6070471FB51FBD0B
:1001300010B510BD00F00BF91146FFF7F7FF00F006
:10014000ABFD00F023F903B4FFF7F2FF03BC00F0AE
:1001500029F900000748804707480047FEE7FEE707
:10016000FEE7FEE7FEE7FEE704480549054A064BC1
:1001700070470000A50A0008B100000888040020AC
:10018000880A0020880600208806002001E004C0BC
:10019000091F0429FBD28B0701D50280801CC907E7
:1001A00000D00270704700290BD0C30702D0027044
:1001B000401C491E022904D3830702D50280801CFB
:1001C000891EE3E70022EEE70022DFE70378C2782A
:1001D0001946437812061B0219438378C0781B0422
:1001E000194311430902090A000608437047002217
:1001F00003098B422CD3030A8B4211D300239C4664
:100200004EE003460B433CD4002243088B4231D3DB
:1002100003098B421CD3030A8B4201D394463FE06F
:10022000C3098B4201D3CB01C01A524183098B42CF
:1002300001D38B01C01A524143098B4201D34B01B8
:10024000C01A524103098B4201D30B01C01A52411B
:10025000C3088B4201D3CB00C01A524183088B42A2
:1002600001D38B00C01A524143088B4201D34B008B
:10027000C01A5241411A00D20146524110467047FD
:100280005DE0CA0F00D04942031000D34042534002
:1002900000229C4603098B422DD3030A8B4212D3C2
:1002A000FC22890112BA030A8B420CD389019211F4
:1002B0008B4208D3890192118B4204D389013AD031
:1002C000921100E08909C3098B4201D3CB01C01A06
:1002D000524183098B4201D38B01C01A5241430919
:1002E0008B4201D34B01C01A524103098B4201D307
:1002F0000B01C01A5241C3088B4201D3CB00C01A74
:10030000524183088B4201D38B00C01A5241D9D28B
:1003100043088B4201D34B00C01A5241411A00D20C
:100320000146634652415B10104601D34042002B08
:1003300000D54942704763465B1000D3404201B587
:100340000020C046C04602BD7047704770477546E2
:1003500000F024F8AE46050069465346C008C000C8
:10036000854618B020B5FFF7FFFE60BC002749089E
:10037000B6460026C0C5C0C5C0C5C0C5C0C5C0C53D
:10038000C0C5C0C5403D49008D46704710B5044604
:10039000C046C0462046FFF7D6FE10BD0048704755
:1003A0002404002001491820ABBEFEE7260002000D
:1003B0007047000010B504463421884301D1002C59
:1003C00003D1034903A000F013FC0A48C46010BD28
:1003D0008A0400002E2E5C436F72655C5372635C6E
:1003E00073746D3332663078785F666C6173682E33
:1003F0006300000000200240F8B505461F20C0063B
:1004000010492818884204D9FF2107310EA000F0B6
:10041000EFFB0B273F04384600F096F804280FD175
:10042000114C20690226304320616561206940211A
:1004300008432061384600F087F82169B143216103
:10044000F8BD0000FFFF00002E2E5C436F72655C5C
:100450005372635C73746D3332663078785F666CA8
:100460006173682E630000000020024008490420E8
:10047000CA68D20701D001207047CA68D20601D5E8
:1004800002207047C9684907FBD503207047000068
:100490000020024002480169802211430161704737
:1004A00000200240F8B50546002000900E461F20AF
:1004B000C00613492818884204D9FF214F3111A0E2
:1004C00000F096FB0B273F04384600F03DF8042867
:1004D00015D1144C20690121084320612E80384633
:1004E00000F032F8042806D1AD1C300C00952880AD
:1004F000384600F029F82169490849002161F8BD12
:10050000FFFF00002E2E5C436F72655C5372635CCC
:1005100073746D3332663078785F666C6173682E01
:10052000630000000020024004480169090603D569
:1005300003494160034941607047000000200240C8
:1005400023016745AB89EFCD00B50346FFF78EFF6A
:1005500002E0FFF78BFF5B1E012803D0002B00D1C8
:10056000052000BD002BF4D1FAE700F033FB0000BA
:10057000F0B5274882690427130708242549002B72
:1005800014DAC3692343C3618369DB03036805D5B8
:1005900002252B43036003230B7002E03B430360FF
:1005A0000F70036820252B4303600AE0930708D4EB
:1005B000530706D5456A184E4B88F5545B1C4B8093
:1005C0000F7092060123002A20DAC5692022154304
:1005D000C5610E780025032E0ED0042E0BD14D8060
:1005E0000B700168914301604168920211434160C0
:1005F000016821430160F0BDC269FF2331331A4312
:10060000C2610268224302600D70F0BD8B80F0BDB4
:1006100000540040000000201C00002010B500F035
:10062000E9FA002811D00A4C20680A490840610400
:10063000884209D100F0AEF960680749C8600861D6
:10064000216881F30888804710BD00F0B5FA0000EA
:10065000001000080000FE2F0000002008B504492B
:100660004A6902434A6149690140009108BD00009E
:100670000010024008B50449CA690243CA61C96949
:100680000140009108BD000000100240F0B50024B8
:100690004DE00123A3401A4048D04B68012B01D004
:1006A000022B10D18E688568134653435F00DF1913
:1006B000BD4373431D438560CD680B6846689E4308
:1006C0006B431E4346600F69C668134653435D0083
:1006D0005D19AE435F433E43C6604E68022E1FD194
:1006E000FF2A0ED817464A69066A94461A467A4384
:1006F0007A431701BF1ABE4367467A431643066220
:100700000EE0160A324672434F6972437243BC468A
:100710001601B71A466ABE4367467A4316434662D5
:100720004A6806685343AE431E430660641C0A6869
:100730001346E340ADD10020F0BD00000146084A59
:100740000020914209D1074901220B695205134348
:100750000B610B6993430B617047012070470000E8
:10076000005400400010024030B5026852085200A8
:1007700002608C68CA6803681F252D021202AB4311
:100780002243134303604A680261026801231A434B
:10079000026083680122D203934383608C690B69F2
:1007A00085682343ED0AED021D4385600B69002B2C
:1007B00002D08368134383600C68036803252D050A
:1007C000AB43234303604B69416891431943416044
:1007D000002030BD10B57D21C900FFF708FD044998
:1007E000401E4861002088610520086110BD00009E
:1007F00000E000E005480121026909070A4302619F
:1008000002698A4302610020704700000010024024
:1008100018B5204801680122114301600168890769
:10082000C90FFBD00168F82291438023194301606E
:100830000021C9431849009141600C2441682142BC
:10084000FCD10168154C21400091016001688901CB
:10085000C90FFBD101680124A404A1430160002158
:100860004160446B94431C434463426B5208520002
:100870004263426B04239A434263C1620163BF2215
:100880001204009282608160416A9A0511434162BC
:10089000002018BD001002400CF8FFF0FFFFF6FE2C
:1008A000014908607047000018000020F0B58DB0C5
:1008B0001C2106A8FFF788FC18216846FFF784FC76
:1008C00001204004FFF7CAFE012000254002022457
:1008D0000326012769460495D1C10420059009200B
:1008E0006946C006FFF7D2FE600269460495D1C191
:1008F0000420059009206946C006FFF7C7FE2005C1
:10090000FFF7B8FE0021172000F034F9172000F09F
:1009100025F9124CE068E1138843E0602068090182
:100920008843206021687804814321600C48079047
:10093000A82006950A90089509950B9506A90C958F
:100940002046FFF711FF6068790608436060E068A1
:1009500004490840E0600DB0F0BD000000540040C4
:100960000B02000001F8FFFF10B5074B9A68012445
:1009700022439A60002202E0845C1C70521C8A426E
:10098000FAD31868C04310BD0030024000F022F9CD
:100990007047000010B5134C2046FFF7CFFE60688B
:1009A00001214906884360602068400840002060BB
:1009B00020680821884320600B48002101610B4812
:1009C00002689207920F02608160C160016141611B
:1009D0008169821511438161FFF71AFFFFF70AFF52
:1009E00010BD00000054004000E000E000000140A5
:1009F0007047000002480168491C01607047000010
:100A00001400002070B524480022016849084900FC
:100A100001607D21090202E0521C8A422AD8036843
:100A2000DB07DB0FF8D11D4C20680122104320604A
:100A3000002002E0401C88421CD822689207D20F96
:100A4000F8D02068F822904380221043206060682C
:100A5000F022904360606068072212029043606059
:100A6000606880088000606000200C2304E0401C67
:100A7000884201D900F0A0F862681A42F7D1084D07
:100A80002846FFF7A7FE2846FFF70AFF206B102134
:100A90008843206370BD0000002002400010024027
:100AA00000127A0070470000F8B52A4F082500268A
:100AB000781CFFF78BFB00BA040A38792402044340
:100AC000E80127182448032120180903884240D24E
:100AD000204841798079090208180004000C2DD0C3
:100AE000FFF722FD3420FFF765FC04E07D200002C3
:100AF000761C86422BD82046FFF77EFC0428F5D1D1
:100B00001AE0144846193046FFF760FB0002F178FE
:100B1000000A090608430026009004E07D208001B9
:100B2000761C864213D820460099FFF7BBFC0428A8
:100B3000F4D12D1DADB2241DBC42E2D300200549E5
:100B400081220346D2000B54401C9042FBD3FFF796
:100B5000A1FCF8BD1C00002000F0FFF7002805DB19
:100B6000C106C90E01208840014908607047000095
:100B700000E100E08307FF22DB0E9A408907090E9F
:100B80009940002808DB830809489B001B18186857
:100B900090430843186070470007000F0838830827
:100BA00004489B001B18D86990430843D8617047DC
:100BB00000E400E000ED00E0BFF34F8F044903487C
:100BC000C860BFF34F8F00BFFDE700000400FA05C7
:100BD00000ED00E0BFF34F8F04490348C860BFF346
:100BE0004F8F00BFFDE700000400FA0500ED00E0B4
:100BF0007047000010B5084A05480649D46BFFF756
:100C0000B3FE844201D1012010BD002010BD0000C0
:100C100000100008FC2B0000C03B0008194C012507
:100C20006069A168884201D9FFF7F8FC20780128A3
:100C3000F6D11549C0050860BFF34F8FBFF36F8F22
:100C400000202070114800786070062802D07728B4
:100C500009D106E060690E494018A060FFF724FF43
:100C600001E0FFF7DBFC1720FFF778FF0948026877
:100C700008210A43026002682A43026002680A43AC
:100C80000260CDE70000002080E100E01C000020B1
:100C900060EA00000054004008B528480025826939
:100CA00001210A4382618069084000900807FFF72C
:100CB000E1FC03210C1F2046FFF75CFFFFF7A2FEBB
:100CC0001F487D21C900260A0068FFF790FA012716
:100CD0001C49401E01E0FFF76FFFB04203D96D1CB5
:100CE0008D42FAD9F7E7184D686103212046FFF7D6
:100CF00041FF0020A861072028614020FFF7AEFCDB
:100D000012482022816860239943114381608168E1
:100D100080229143114381600461FFF7C7FD0C48B5
:100D200001683943016001680822114301600948E4
:100D30004169FF31F5318160FFF770FF001002401B
:100D400018000020E02E000000E000E0003002402B
:100D50000054004000000020780D00080000002032
:100D60001C000000F4000008940D00081C00002086
:100D70006C0A0000100100080000000000000000E4
:100D80000000000000000000000000000000000063
:100D900000127A00FFFFFFFFFFFFFFFFFFFFFFFFD3
:100DA000FFFFFFFFFFFFFFFFFFFFFFFFFFFFFFFF53
:100DB000FFFFFFFFFFFFFFFFFFFFFFFFFFFFFFFF43
:100DC000FFFFFFFFFFFFFFFFFFFFFFFFFFFFFFFF33
:100DD000FFFFFFFFFFFFFFFFFFFFFFFFFFFFFFFF23
:100FF000FFFFFFFFFFFFFFFFFFFFFFFFFFFFFF01FF
:10100000000E0020C51000082D200008151A000849
:1010100000000000000000000000000000000000D0
:101020000000000000000000000000003520000863
:10103000000000000000000033200008BD2600086A
:10104000D710000800000000D7100008D7100008D3
:10105000D7100008D7100008D7100008D7100008D4
:1010600000000000D7100008D7100008D7100008B3
:10107000D7100008D7100008D710000800000000A3
:10108000D71000080000000000000000D710000882
:101090000000000099270008A92700081D1A000871
:1010A00000000000D710000800000000D710000862
:1010B0000348854600F06CF80048004735300008CA
:1010C000000E00200448804704480047FEE7FEE782
:1010D000FEE7FEE7FEE7FEE795270008B1100008EF
:1010E00030B50B46014600202022012409E00D46C0
:1010F000D5409D4205D31D469540491B2546954048
:1011000040191546521E002DF1DC30BD70B500248B
:101110002546002801DA01244042002901DA012590
:101120004942FFF7DDFFAC4200D04042002C00D026
:10113000494270BD10B5202A04DB0846203AD04051
:10114000002110BD0B46D340D0402024A21A91406C
:101150000843194610BDD2B201E00270401C491E7E
:10116000FBD270470022F6E710B513460A46044644
:101170001946FFF7F0FF204610BD0321001D401E59
:10118000037812021A43491EF9D510467047000031
:10119000064C0125064E05E0E36807CC2B430C3CCA
:1011A00098471034B442F7D3FFF786FF6039000840
:1011B0008039000872B600F061FAFCE706490020A9
:1011C000C861064801690422114301610169402296
:1011D0001143016170470000E00900200020024037
:1011E000064A0021D16106490A6902231A430A61AD
:1011F000486108694022104308617047E0090020F7
:101200000020024010B5054B0022DA61044A136940
:10121000012423431361018010BD0000E009002078
:101220000020024010B50B4A0020D168CB060A49C5
:1012300004D5C86902231843C8611020D3685B072E
:1012400005D5CB6901242343CB6104210843D06039
:1012500010BD000000200240E009002070B50446E7
:1012600000F098F90546104E0AE0601C08D0002CEA
:1012700004D000F08FF9401BA04201D9032070BDBB
:10128000F068C007F1D1F068800601D52020F06039
:10129000F068C00602D4F068400703D5FFF7C2FF2C
:1012A000012070BD002070BD0020024070B50446D2
:1012B00000F070F90546601C02D00448007824183C
:1012C00000F068F9401BA042FAD370BD280100204D
:1012D000F8B5054623480F46017E012601290BD0AB
:1012E000012101762868204C012807D02046FFF70D
:1012F000B5FF002813D030E00220F8BD2046FFF7EC
:10130000ADFF002829D1FFF759FF2046FFF7A6FFC0
:101310000646164801690422914301611DE0002040
:10132000C04338606C6812E02046FFF759FF0E4852
:10133000FFF794FF06460D480169022291430161BF
:10134000002E01D03C6008E0012080022418A8682B
:10135000696880024018A042E6D802480021017660
:101360003046F8BDE009002050C3000000200240D4
:101370000348016980221143016100207047000089
:1013800000200240F0B51FB405461A480024017E33
:1013900016461F46012907D0012101761648FFF79E
:1013A0005DFF002803D021E0022005B0F0BD012D33
:1013B0001AD0022D18D0042516E0220130463946F5
:1013C000FFF7B8FE81B2019862001018FFF71AFF0C
:1013D0000948FFF743FF09490A69520852000A61A8
:1013E000002803D1641CE4B2AC42E6D301490022D8
:1013F0000A76DAE7E009002050C30000002002402E
:10140000064900200A69120607D5054A4A60054ABE
:101410004A600969090600D5012070470020024092
:1014200023016745AB89EFCDF8B5002294E0012791
:1014300097403B407ED00C79A407A40F012C01D02B
:10144000022C10D1856854000326A640B543CE680F
:10145000A6402E43866044680D79BC43ED06ED0F2F
:101460009540254345600C79E443A40708D0C5683E
:1014700054000326A640B5438E68A6402E43C6609E
:101480000C79A407A40F022C0CD1D408A4002718AF
:101490003D6A5407E40E0F26A640B5430E69A640E8
:1014A0002E433E62056854000326A640B5430E79DC
:1014B000B607B60FA6402E4306604C68A403A40FDF
:1014C00049D0284CA56901263543A561A469950832
:1014D00034400094244CAD002F19BD689407240FAC
:1014E0000F26A640B5430926F606B04201D10026D4
:1014F0000FE01E4EB04201D101260AE01C4EB04260
:1015000001D1022605E01B4EB04201D1032600E0C6
:101510000526A6402E43BE60174DAC684E689C431E
:10152000F60200D51C43AC60EC684E689C43B602E2
:1015300002D500E00FE01C43EC606C684E689C43F1
:10154000B60300D51C436C602C684E689C43F603C0
:1015500000D51C432C60521C0B681C46D44000D0A4
:1015600065E7F8BD0010024000000140000400489B
:1015700000080048000C00480004014000690840D1
:1015800000D001207047002A01D08161704781623C
:101590007047000001488068704700002801002063
:1015A000024881680278891881607047280100200C
:1015B00010B506480168102211430160032000F0B5
:1015C00007F800F027F8002010BD000000200240BE
:1015D00070B504460D4D7D202978C000FFF780FDD1
:1015E00001460B480068FFF77BFD00F055F8002826
:1015F00009D1042C07D200222146401E00F03AF8FF
:1016000000206C6070BD012070BD0000280100202A
:101610003401002008B50848816901221143816125
:10162000816911400091C26901040A43C261C06925
:101630000840009008BD000000100240002809DBAF
:10164000C106C90E0120884003490860BFF34F8FCF
:10165000BFF36F8F7047000080E100E0002805DBDA
:10166000C106C90E0120884001490860704700008A
:1016700000E100E010B501F00BF910BDBFF34F8F92
:1016800004490348C860BFF34F8F00BFFDE7000067
:101690000400FA0500ED00E0094910B5401E88423B
:1016A00001D9012010BD074C60610321081F01F022
:1016B000EFF80020A06107202061002010BD00008D
:1016C000FFFFFF0000E000E07047704770B5044680
:1016D00002202546203568772168086A0E4A1042A4
:1016E00007D1086A9210104203D1086840084000F0
:1016F0000860204600F036F800214034A171A97737
:10170000E97721706170A170E17021716171697771
:101710002977084670BD00001111000070B5040063
:1017200005D025462035687F002802D006E001203C
:1017300070BD00202877204600F034F8022068773A
:10174000211D206801F038F801224034A271AA77E7
:10175000EA7722706270A270E270227162716A7719
:10176000002070BD10B500680B4A0C49904206D1AC
:1017700088690122520490438861152008E0084AD4
:10178000904207D188690122920490438861162013
:10179000FFF754FF10BD000000440140001002405C
:1017A0000048014008B50068134A144990420ED120
:1017B0008A690120400402438A618969002201404C
:1017C000009111461520FFF755FF152010E00C4A37
:1017D00090420FD18A690120800402438A6189699D
:1017E00000220140009111461620FFF743FF16200A
:1017F000FFF734FF08BD0000004401400010024024
:1018000000480140014620314A7F012A01D00120D1
:10181000704702224A770168CB6801221343CB60EC
:1018200000680849884202D00749884204D181688B
:101830004907490F062902D00168114301600020C1
:1018400070470000002C01400004004001680A6A53
:10185000074B1A4207D10A6A9B101A4203D10A6841
:10186000520852000A600121203041770020704761
:10187000111100000168CA6852085200CA6001686C
:101880000A6A084B1A4207D10A6A9B101A4203D10E
:101890000A68520852000A60012120304177002076
:1018A0007047000011110000704770B504460068D1
:1018B00001690025C9438907002915DBC168C943AF
:1018C000890711D4E91E0161012020772068806911
:1018D0008007204602D0FFF7E7FF04E000F096F80B
:1018E000204600F094F8257720680169C94349072C
:1018F00017D4C168C943490713D40421C9430161FE
:1019000002202077206880698005800F204602D061
:10191000FFF7CAFF04E000F079F8204600F077F8FE
:10192000257720680169C943090716D4C168C943EE
:10193000090712D40821C9430161042020772068D7
:10194000C0698007204602D0FFF7AEFF04E000F038
:101950005DF8204600F05BF8257720680169C943EF
:10196000C90617D4C168C943C90613D41021C94395
:101970000161082020772068C0698005800F20461B
:1019800002D0FFF791FF04E000F040F8204600F09D
:101990003EF8257720680169C943C90708D1C168A5
:1019A000C943C90704D1891E0161204600F030F8FF
:1019B00020680169C943090609D4C168C9430906F9
:1019C00005D48021C94301612046FFF77DFE2068D0
:1019D0000169C943490609D4C168C943490605D408
:1019E0004021C9430161204600F013F820680169D5
:1019F000C943890609D4C168C943890605D4202191
:101A0000C94301612046FFF760FE70BD7047704713
:101A100070477047FFF732FEFCE70000F8B5424E12
:101A2000B068401CB060B068404900270825404CB1
:101A3000884212D9204600F0A9F96068A9058843B8
:101A4000606020684008400020602068A843206053
:101A500001F0B8FE01F096FAB760A0690007C00F68
:101A6000A0692FD0000CFE2108403178884226D191
:101A70007088002808D001F071FA71882D4800F0B4
:101A8000E5FA778001F07EFAA169012000040142A5
:101A900009D1E0692843E0612068042108432060FF
:101AA0000120F060F8BDA1690140814207D1E069E1
:101AB0002843E0612068022108432060F8BDE06906
:101AC000284305E0C006C00F04D0E0691021084398
:101AD000E061F8BDA0698007C00F02D000F0BEFD34
:101AE000F8BDA0694007C00F02D000F0D1FDF8BDDD
:101AF000A0698006C00F15D0E06920210843E0618D
:101B0000A069C007C00F01D10120A06101F026FA31
:101B10007188084800F09AFA778001F033FAF7608C
:101B20003761F8BDA069F8BD10010020E02E00006B
:101B30000054004088020020012108B549070E4AE0
:101B4000002083009B181B68401C08C1C0B23028CD
:101B5000F7D30A48816901221143816180691040ED
:101B60000090074801688908890001600168032224
:101B70001143016008BD0000001000080010024081
:101B80000000014038B5002100918268D207D20FD1
:101B90002DD0C26837239B019A43C2608268264BCE
:101BA0005207D20F07D08268D206D20F03D18268C3
:101BB0001A40103282600124E403009404E0009A89
:101BC000551E009500D201218268D206D20FF6D1AF
:101BD00082681A40921C8260009404E0009A531EAE
:101BE000009300D2012182689207D20FF6D1826859
:101BF00017231A421DD143689F2293434360036811
:101C000013430360C2680D4B1A40C2600269920020
:101C1000920802614269D208D2004261026A084B0E
:101C2000120B12031A430262826A920C92048262BD
:101C300000E00121084638BDE8FFFF7F00023E8337
:101C40000000FF0F70B583680022DB07DB0F02D0B6
:101C50000122104670BD8C684B68C5682343CC6870
:101C6000054E35402C432343C360036909689B003C
:101C70009B080B430361ECE7C73FFFFF30B5836868
:101C80000022DB07DB0F02D00122104630BD18C94D
:101C90004D6823430C6889682C4323430B43C16878
:101CA000024C21400B43C360EFE700003CC2FEFF43
:101CB00008B504494A6902434A61496901400091F3
:101CC00008BD00000010024008B50449CA6902437B
:101CD000CA61C9690140009108BD000000100240BE
:101CE000F0B500234CE001249C40224047D04C68D2
:101CF000012C01D0022C10D18D6886681446544303
:101D00006700E719BE436C4326438660CD680C68C4
:101D10004668A6436C43264346600F69C66814466E
:101D2000544365006519AC46AE4325467D432E43BA
:101D3000C6604D68022D1BD1FF2A0CD84F69056A79
:101D400016462246724372431601B61AB5437A43C9
:101D5000154305620CE0150A2A466A436A436A4342
:101D600015014E69476AAD1AAF4372431743476284
:101D70004A6805686646B5435443254305605B1CC5
:101D80000A681446DC40AED10020F0BD0146084A86
:101D90000020914209D1074901220B6952051343E2
:101DA0000B610B6993430B61704701207047000082
:101DB000005400400010024030B502685208520042
:101DC00002608B68CA6804681F252D021202AC43AA
:101DD0001A43144304604A680261026801231A43EB
:101DE000026083680122D203934383608C690B698C
:101DF00085682343ED0AED021D4385600B69002BC6
:101E000002D08368134383600B68046803252D05A3
:101E1000AC431C4304604969436893430B434360EC
:101E2000002030BD014908607047000034010020E7
:101E3000F0B591B00024254605940694079414212A
:101E400068460894FFF78EF9182109A8FFF78AF968
:101E50002B480121826949020A43826182690A4052
:101E60000F920A0241691143416140690127104004
:101E70000F9003200A900920099709A90D95C00623
:101E8000FFF72EFF1F4EB06A3843B06205950695E6
:101E9000079505A930460895FFF7D4FE00950195F2
:101EA00002956946304603970495FFF7E7FEF06810
:101EB00004218843F0607169072081430143716107
:101EC000B06817218843C9070843B0607D2000022D
:101ED00002E0641C844202D8B168C90FF9D1B2682B
:101EE0000021094B1A40521CB26002E0491C814299
:101EF00003D83268D207D20FF8D011B0F0BD00007D
:101F00000010024000240140E8FFFF7FF0B587B0D9
:101F100014216846FFF726F92748426901218905FF
:101F20000A43426142690A400592426949110A43E3
:101F3000426142690A400592426949000A4342618E
:101F400040691E4E08400590002203213046FFF7ED
:101F50001AFB0927FF060022C0213846FFF713FBB2
:101F6000002202211648FFF70EFB03200024012562
:101F7000009002946946019503943046FFF754FAA5
:101F80003E2000900194694602943846FFF74CFACF
:101F9000C020009002946946019503943846FFF7EB
:101FA00043FA022000900294694601950394044884
:101FB000FFF73AFA07B0F0BD0010024000140048E5
:101FC0000004004810B50A48084901602F2141600B
:101FD000002181600161074A4161C2608161FFF7B0
:101FE0009DFB002801D0FFF7E5F810BD004401403B
:101FF000F8010020FFFF000010B50A480849016001
:102000002F214160002181600161074A4161C26066
:102010008161FFF783FB002801D0FFF7CBF810BDEB
:102020000048014040020020FFFF0000FFF726FBB0
:10203000FCE77047704700000A235A4383000248B8
:10204000181849004252704750010020F0B506466A
:10205000007889B004070509240F2D010A46702D68
:1020600012D006DC402D09D0502D09D0602D10D1A2
:1020700008E0802D0AD0A02D0BD109E0002508E052
:10208000012506E0022504E0032502E0042500E026
:1020900005250021FB4F012A7ED9052D7DD8012C75
:1020A00038D86800F84B05900122C01802550598F1
:1020B0000C33C01802553A46A800243A821865002D
:1020C0005153C219515300911946183140180690C6
:1020D000415B1A4605980C328718385D00230122AF
:1020E00001F04AFBE74A05983032717880180155B3
:1020F000C807C00F09D0002805D006980122415B0F
:10210000385D00F0F3FE09B0F0BD06980022415B97
:10211000385DF6E7A01E0790012842D8DA4B680028
:102120000C330590C0180019012220388277AA00CC
:10213000D0196300C01840388187D34F0598C01963
:102140000019203881770320009038462430101879
:10215000C01840380690818F3A460598183280188A
:1021600000190746203FB87F0023012201F004FB3D
:10217000C44A0598303A801802197178203A91774C
:10218000002904D10698818FB87F00F0D5FE07980A
:10219000927FC1B2284601E068E117E1FFF74CFFEA
:1021A000B1E720460C38012841D86A00B64B01201F
:1021B000D3181B19203B06921875B248AD0024387D
:1021C0002B1860001B18403B05901985AE4B0C3353
:1021D000D3181B19203B197503210091AA4900232C
:1021E0002431691808184038018DA7481830101894
:1021F00000192038007D012201F0BEFA7078B42861
:1022000081D8A04A06990C3A89180919203908750D
:1022100070787D2109014843B421FEF761FF0599DB
:10222000EA19FF305118F530403908856BE723462D
:10223000701C0E3B0590012B38D8032AB0D1924B6D
:102240006800C3181B190122203B9A748D4AAE0006
:10225000243AB21865005219403A91848A4A002300
:102260000C3282181219203A917403210091864A87
:1022700085491832243180187118491900194039DC
:102280002038898C807C012201F076FA059841780B
:102290000278080210430146FF397C4AF539914221
:1022A000C4D2F1194919403988842CE7082C0AD086
:1022B000092C1BD00A2C4FD00B2CB7D17248717847
:1022C000801F41551FE7032AB0D1417802780802E8
:1022D00010434A2804D86B496A003C39885212E7F7
:1022E00068484A216A003C3881520CE7062A9DD191
:1022F000654A6800012382185370634A614C0C32AE
:1023000082185370AA00243C14196180D41961808A
:102310005D490093243154185B4A61881832801853
:1023200040780023012201F027FA564AA900002034
:1023300069183C328918321852780A54401C052812
:10234000F9DB4878097800020843514962880A801D
:10235000294601F0A7F9D6E6082AA6D14A4A68001C
:10236000012382185370484A464C0C32821853702D
:10237000AA00243C14196180D41961804249009359
:1023800024315418404A618818328018407800235C
:10239000012201F0F1F93B49EA0000205A31521BB9
:1023A0005118321852780A54401C0728F9DB487833
:1023B0000A7800021043CA788B7811021943344A14
:1023C000638813802A4601F0ABF89CE6FF2835D0DD
:1023D000FA2842D0FD2888D17078012885D12D4C6B
:1023E0002046FFF7D3FC60680121490688436060FE
:1023F0002068400840002060206808218843206051
:102400002548FFF7BFFB2548FFF734FA2448FFF7BC
:1024100031FA2248FFF71AFA2148FFF717FA1F4846
:10242000FFF754F91E48FFF751F9BFF34F8F1E49CC
:102430001C48C860BFF34F8F00BFFDE7022A8AD156
:102440007078002887D0802885D20F49113908700C
:1024500000F0DAFD01F0B6F955E6022AB5D1707840
:102460000128B2D80849123988704CE6012AACD14B
:10247000052D79D8012C19D8024869003030081888
:10248000001981E074010020D2000020D107000073
:10249000260100200054004000240140F8010020E3
:1024A000400200200400FA0500ED00E0A01E012813
:1024B00006D867486900081800190121801E64E0E9
:1024C00020460C38012807D86148690024300818D4
:1024D000001901210C3858E020460E3801280BD88D
:1024E000A800C019610040184038818C6A461171FB
:1024F000808C000A507171E0201F012835D8554B9F
:102500006800C3181B190122203B1A77514B0C336A
:10251000C3181B19203B1A774D4AAB000C329D188B
:102520006200AD18403D2987DD19AD18403D29876F
:1025300000914849243159188D18464A403D1832B7
:1025400080180419203C0023298F207F1A4601F0AF
:1025500013F9298F207F00F0B3FC3E491239C8706F
:102560003C4801210F3810E056E0062C10D0082C12
:102570002BD001AA092C34D00A2C3FD00B2C00D030
:10258000C1E53448801F4019012100F013FDBAE570
:10259000304B012268001A540C331A542C4BAA00F9
:1025A0000C339952B95200912A4900232431511811
:1025B000284A0988183280180078032201F0DCF8D4
:1025C0000C21284600F0E6FE9DE5214968000C3903
:1025D0000A5A6B461A71085A000A5871022101A85A
:1025E000D3E71B4BA900002069186C33C9180B5C9A
:1025F0001354401C0528FADB05210BE01449EB00BD
:1026000000208A315B1B59180B5C1354401C0728AF
:10261000FADB07211046B8E7FE280DD0FA280FD0C4
:10262000FF2811D0FC28ABD10B48C17F09481238D4
:10263000816001210830A8E7064801211238A4E78B
:10264000044801211038A0E70248012111389CE715
:1026500044010020D2000020E00F00080A48094988
:102660008288895C094A91628188491C81808288BC
:10267000C38800219A4200D381808288322A00D305
:1026800081807047BA0200201001002000540040F1
:102690000748416A0848074A4388D1544188491C81
:1026A00041804188322901D30021418070470000D8
:1026B00000540040880200201001002010B5FEF7F1
:1026C0006FFF10BD10B53048012102688A430A43EC
:1026D00002600168C907C90FFBD02C4C2068012398
:1026E0001843206020688007C00FFBD02068F821C5
:1026F0008843802210432060606B18436063606BE6
:102700008007C00FFBD0606B8843104360630521D6
:102710006068C9043D221204904308436060E06A87
:1027200000090001E06220680121090608432060D9
:1027300020688001C00FFBD06068F0218843606092
:102740006068072109028843606061680220890887
:102750008900014361600C21606808400828FBD1B2
:102760000B48FFF75FFB0320FEF732FF002801D084
:10277000FEF720FD606B042188436063206B10210D
:102780008843206310BD000000200240001002407A
:10279000006CDC027047000010B50248FFF785F8B6
:1027A00010BD0000F801002010B50248FFF77DF8C9
:1027B00010BD00004002002070B50268184C194E90
:1027C000A04201D0B04204D1134670254A68AB4301
:1027D0001A43154B154DA04208D0B04206D0144EF6
:1027E000B04203D0984201D0A84204D10326360259
:1027F000B243CE6832438026B2434E693243026010
:102800008A68C2620A688262A04203D0984201D0FC
:10281000A84201D1096901630121416170BD000035
:10282000002C0140000400400044014000480140E9
:1028300000200040002805DBC106C90E01208840A9
:10284000014908607047000000E100E08307FF22B3
:10285000DB0E9A408907090E9940002808DB83089F
:1028600009489B001818036893430B4303607047A3
:102870000007000F0838830804489B001818C36934
:1028800093430B43C361704700E400E000ED00E0B8
:102890008307FF22DB0E9A408907090E9940002822
:1028A00008DB830809489B001818036893430B430F
:1028B000036070470007000F0838830804489B0036
:1028C0001818C36993430B43C361704700E400E0E9
:1028D00000ED00E002E008C8121F08C1002AFAD18A
:1028E00070477047002001E001C1121F002AFBD190
:1028F00070470000F0B50021172701262B4D092253
:10290000D2067C1A3346A34003426B88936122D0DF
:1029100000BF00BF00BF00BF00BF00BF00BF00BFBF
:1029200000BF00BF00BF00BF00BF00BF00BF00BFAF
:1029300000BF00BF00BF00BF00BF00BF00BF00BF9F
:1029400000BF00BF00BF00BF00BF00BF00BF00BF8F
:102950006B8893621BE000BF00BF00BF00BF00BFD9
:1029600000BF6B88936200BF00BF00BF00BF00BF05
:1029700000BF00BF00BF00BF00BF00BF00BF00BF5F
:1029800000BF00BF00BF00BF00BF00BF00BF00BF4F
:1029900000BF00BF00BF00BF00BF00BF00BF00BF3F
:1029A00000BF491CC9B21829ABD3F0BD24010020D7
:1029B000F0B5002117270126434D0922D2067C1AC3
:1029C0003346A34003426B8893613ED000BF00BFF3
:1029D00000BF00BF00BF00BF00BF00BF00BF00BFFF
:1029E00000BF00BF00BF00BF00BF00BF00BF00BFEF
:1029F00000BF00BF00BF00BF00BF00BF00BF00BFDF
:102A000000BF00BF00BF00BF00BF00BF00BF00BFCE
:102A100000BF00BF00BF00BF00BF00BF00BF00BFBE
:102A200000BF00BF00BF00BF00BF00BF00BF00BFAE
:102A300000BF00BF00BF00BF00BF00BF00BF00BF9E
:102A400000BF00BF6B88936237E000BF00BF00BFCC
:102A500000BF00BF00BF6B88936200BF00BF00BF14
:102A600000BF00BF00BF00BF00BF00BF00BF00BF6E
:102A700000BF00BF00BF00BF00BF00BF00BF00BF5E
:102A800000BF00BF00BF00BF00BF00BF00BF00BF4E
:102A900000BF00BF00BF00BF00BF00BF00BF00BF3E
:102AA00000BF00BF00BF00BF00BF00BF00BF00BF2E
:102AB00000BF00BF00BF00BF00BF491CC9B218293A
:102AC00000D27CE7F0BD000024010020F0B5002119
:102AD00017272C4D2C4A01267C1A3346A34003426B
:102AE0006B88936122D000BF00BF00BF00BF00BF52
:102AF00000BF00BF00BF00BF00BF00BF00BF00BFDE
:102B000000BF00BF00BF00BF00BF00BF00BF00BFCD
:102B100000BF00BF00BF00BF00BF00BF00BF00BFBD
:102B200000BF00BF00BF6B8893621BE000BF00BF07
:102B300000BF00BF00BF00BF6B88936200BF00BF33
:102B400000BF00BF00BF00BF00BF00BF00BF00BF8D
:102B500000BF00BF00BF00BF00BF00BF00BF00BF7D
:102B600000BF00BF00BF00BF00BF00BF00BF00BF6D
:102B700000BF00BF00BF00BF491CC9B21829ABD3BA
:102B8000F0BD00002401002000040048F0B5002141
:102B90001727434D434A01267C1A3346A34003427C
:102BA0006B8893613ED000BF00BF00BF00BF00BF75
:102BB00000BF00BF00BF00BF00BF00BF00BF00BF1D
:102BC00000BF00BF00BF00BF00BF00BF00BF00BF0D
:102BD00000BF00BF00BF00BF00BF00BF00BF00BFFD
:102BE00000BF00BF00BF00BF00BF00BF00BF00BFED
:102BF00000BF00BF00BF00BF00BF00BF00BF00BFDD
:102C000000BF00BF00BF00BF00BF00BF00BF00BFCC
:102C100000BF00BF00BF00BF00BF00BF00BF6B8888
:102C2000936237E000BF00BF00BF00BF00BF00BF1E
:102C30006B88936200BF00BF00BF00BF00BF00BF32
:102C400000BF00BF00BF00BF00BF00BF00BF00BF8C
:102C500000BF00BF00BF00BF00BF00BF00BF00BF7C
:102C600000BF00BF00BF00BF00BF00BF00BF00BF6C
:102C700000BF00BF00BF00BF00BF00BF00BF00BF5C
:102C800000BF00BF00BF00BF00BF00BF00BF00BF4C
:102C900000BF00BF491CC9B2182900D27CE7F0BDB3
:102CA0002401002000040048F0B5002117272C4D16
:102CB0002C4A01267C1A3346A34003426B88936159
:102CC00022D000BF00BF00BF00BF00BF00BF00BFD9
:102CD00000BF00BF00BF00BF00BF00BF00BF00BFFC
:102CE00000BF00BF00BF00BF00BF00BF00BF00BFEC
:102CF00000BF00BF00BF00BF00BF00BF00BF00BFDC
:102D000000BF6B8893621BE000BF00BF00BF00BF25
:102D100000BF00BF6B88936200BF00BF00BF00BF51
:102D200000BF00BF00BF00BF00BF00BF00BF00BFAB
:102D300000BF00BF00BF00BF00BF00BF00BF00BF9B
:102D400000BF00BF00BF00BF00BF00BF00BF00BF8B
:102D500000BF00BF491CC9B21829ABD3F0BD0000A9
:102D60002401002000140048F0B500211727434D2E
:102D7000434A01267C1A3346A34003426B88936181
:102D80003ED000BF00BF00BF00BF00BF00BF00BFFC
:102D900000BF00BF00BF00BF00BF00BF00BF00BF3B
:102DA00000BF00BF00BF00BF00BF00BF00BF00BF2B
:102DB00000BF00BF00BF00BF00BF00BF00BF00BF1B
:102DC00000BF00BF00BF00BF00BF00BF00BF00BF0B
:102DD00000BF00BF00BF00BF00BF00BF00BF00BFFB
:102DE00000BF00BF00BF00BF00BF00BF00BF00BFEB
:102DF00000BF00BF00BF00BF00BF6B88936237E019
:102E000000BF00BF00BF00BF00BF00BF6B88936260
:102E100000BF00BF00BF00BF00BF00BF00BF00BFBA
:102E200000BF00BF00BF00BF00BF00BF00BF00BFAA
:102E300000BF00BF00BF00BF00BF00BF00BF00BF9A
:102E400000BF00BF00BF00BF00BF00BF00BF00BF8A
:102E500000BF00BF00BF00BF00BF00BF00BF00BF7A
:102E600000BF00BF00BF00BF00BF00BF00BF00BF6A
:102E7000491CC9B2182900D27CE7F0BD240100200A
:102E8000001400480549064A0888904201D00020F5
:102E9000704748880028FBD001207047003C00089C
:102EA00055AA00000448054A0188914201D000203B
:102EB0007047408870470000003C000855AA000099
:102EC00010B5002805D0012806D0022806D0CA2057
:102ED00010BD0920C00602E0024800E00248FEF7EB
:102EE0004DFB10BD000400480014004810B5002838
:102EF00005D0012806D0022807D1044803E00920A4
:102F0000C00600E00248FEF73EFB10BD001400487A
:102F100000040048002805D0012806D0022806D168
:102F2000034803E00920C00600E0024881617047C1
:102F30000014004800040048002805D0012806D0ED
:102F4000022806D1034803E00920C00600E0024839
:102F50008162704700140048000400480848016876
:102F600008229143016001681022914301600168C9
:102F700080229143016001682022914301607047E3
:102F8000005400400A4801680122114301600168B1
:102F90000822114301600168102211430160016899
:102FA00080221143016001682022114301607047B3
:102FB0000054004010B5322901D9322101E0002926
:102FC0000DD000280BD00022054B02E0845C9C54FD
:102FD000521C8A42FADB034800228280C18010BD65
:102FE000BA0200201001002010B50121054800F0B0
:102FF00047FA002804D103496120087000F004F862
:1030000010BD0000C100002010B5002404E0641CC5
:10301000142C01D9002010BD0121034800F036FC1A
:103020000028F4D0012010BDC1000020C00700D04E
:103030000120704708B5FEF77FFDFEF7B9FAFFF7EC
:1030400041FBFEF763FFFEF7F3FEFEF7BBFFFEF763
:10305000D3FFFFF7C9FF00F0B5FB4A2000F086FB65
:103060000020704A4A214300D152401C0628FADB56
:10307000FFF788FF6C48FEF7C5FB6C48FEF7C2FB04
:103080006B48416A6B48814202D36949002048621B
:10309000002469480022630018180090805C002812
:1030A00026D16048A1003C300E185000375A604DC0
:1030B0006D6AAF4205D35B4D60355D19AF5C002F83
:1030C0001BD0365A5A4D6D6AAE4211D2554D6035FD
:1030D0005D19AE5C002E0BD0574E18368919095A6F
:1030E00030460C381818805CFFF726FF0020A854E3
:1030F000521C022A0DDA0098D0E74F4E1836891973
:10310000095A30460C381818805CFFF703FF01207D
:10311000EDE7641C062CBCDB4848416A4848814204
:1031200002D34648002141620024434800220C3863
:10313000630018180090805C00282AD13948A1004B
:1031400018300E185000375A3C4D6D6AAF4205D307
:10315000344D54355D19AF5C002F1FD0365A374FB0
:103160007D6AAE4215D22F4D54355D19AE5C002EEE
:103170000FD07F6A324EB7420BD82F4E18368919BE
:10318000095A30460C381818805CFFF7D5FE00202D
:10319000A854521C022A0DDA0098CCE7264E1836A5
:1031A0008919095A30460C381818805CFFF7B2FEAE
:1031B0000120EDE7641C062CB7DB224900200860E3
:1031C0002148006800280ED0FEF7E4F91A4C1E3C96
:1031D0006168884207D91D480168491C0160FEF7F3
:1031E000D9F90A30606019480068322800D847E7EA
:1031F000174C2046FEF7CAFD606801214906884346
:1032000060602068400840002060206808218843F2
:10321000206000F0D7FAFFF7B5FEFF20F530FEF78B
:1032200045F82DE738010020F80100204002002079
:1032300000480140204E0000DE0000200044014014
:10324000F6090000180100201C01002020010020C8
:103250000054004010B51C46029B401A1B1B5843EB
:10326000511AFDF753FF001910BD0000FFB581B0E2
:10327000002A26D00D0C0E0A0C0EFF2A25D011466E
:10328000FF20FDF72DFF074639462046FDF728FFB2
:1032900004463946E8B2FDF723FF05463946F0B249
:1032A000FDF71EFF2904220211430143FF22049867
:1032B00029325043064A821801988000115005B007
:1032C000F0BD002425462046ECE7EDB2F0B2E9E778
:1032D000EC02002000B572B6FF2229325143044AA5
:1032E000800089180858FFF705FB62B600BD000092
:1032F000EC02002000B572B6FF2229325143044A85
:10330000800089180858FFF753FB62B600BD000023
:10331000EC02002000B572B6FF2229325143044A64
:10332000800089180858FFF7D1FB62B600BD000085
:10333000EC02002000B572B6FF2229325143044A44
:10334000800089180858FFF721FC62B600BD000014
:10335000EC02002000B572B6FF2229325143044A24
:10336000800089180858FFF79FFC62B600BD000076
:10337000EC02002000B572B6FF2229325143044A04
:10338000800089180858FFF7EFFC62B600BD000006
:10339000EC020020F0B59BB00E46074600245821F1
:1033A00005A8FDF7DFFE0021324A01910291039149
:1033B00004910D46084691620121B940916251691C
:1033C000C908C900516100212A4A9368DB07DB0F55
:1033D0000CD093689B07DB0F08D193685B07DB0F6A
:1033E00004D19368244F3B401B1D93607D231B0237
:1033F00017687F07FF0F23D004231360126C8B0024
:1034000092B205AF1419491CFA501629DCDB059B52
:1034100000201A4681007958994200D30B46914208
:1034200000D80A46401CC0B21628F3D3E01A801A0E
:103430001421FDF755FE0C2E07D0082E0BD014E0FA
:10344000401C9842D4D91BB0F0BD69460871000AEF
:103450004871022509E0FF2100230091074A19461F
:10346000FFF7F8FE694608710125294601A8FFF714
:10347000A1FDE8E700240140E8FFFF7FFF0F000007
:1034800030B50B460446FFF7FDFC002813D0FFF7CC
:1034900009FD02460020094D03E041190979215434
:1034A000401C9A4201D2114600E019468142F4DCE8
:1034B0009A4201D2104630BD184630BD003C00088B
:1034C000002000BF00BF00BF00BF00BF00BF00BFA3
:1034D00000BF00BF00BF00BF00BF00BF00BF00BFF4
:1034E00000BF00BF00BF00BF00BF00BF00BF00BFE4
:1034F00000BF00BF00BF00BF00BF00BF00BF00BFD4
:1035000000BF00BF00BF00BF00BF401CC0B2712899
:10351000D7D3704701494000087070471001002060
:10352000FEB5154657005D4AD35B834275D9D35B20
:103530005A4CEA00521B963412190192584A6C00F8
:10354000A218574E00922A3E8B4204465FD90F19AB
:103550000EE00198001DFDF710FE00BA010A504868
:1035600009021E38425DA0B22B46FFF77FFE641CA5
:10357000A742EEDC002438E000984078002804D010
:10358000012812D002282FD11FE0B078002802D0E5
:10359000012805D028E0A0B22946FFF79BFE23E0D2
:1035A000A0B22946FFF7A6FE1EE0B078002802D0A0
:1035B000012805D018E0A0B22946FFF7ABFE13E0C2
:1035C000A0B22946FFF7B6FE0EE0B078002802D080
:1035D000012805D008E0A0B22946FFF7BBFE03E0B2
:1035E000A0B22946FFF7C6FE641CA742C4DC52E025
:1035F0000198001DFDF7C1FD00BA010A2848090223
:103600001E38425DA0B22B46FFF730FE641C2348F3
:10361000C15BA142ECDC002439E03EE00098407838
:10362000002804D0012812D002282FD11FE0B07842
:10363000002802D0012805D028E0A0B22946FFF7D3
:1036400049FE23E0A0B22946FFF754FE1EE0B07801
:10365000002802D0012805D018E0A0B22946FFF7C3
:1036600059FE13E0A0B22946FFF764FE0EE0B078E1
:10367000002802D0012805D008E0A0B22946FFF7B3
:1036800069FE03E0A0B22946FFF774FE641C0348FC
:10369000C05BA042C2DCFFF713FFFEBD3801002073
:1036A000EA000020F8B506460F4648002D49009074
:1036B000085AB04254D9B800381878314018801CE4
:1036C000FDF75BFD00BA010A27480902C25D3B46CF
:1036D0003046FFF7CBFD244D00240C3D761C3BE02B
:1036E000214900981E3140184078002804D0012854
:1036F00012D002282FD11FE0A878002802D001287C
:1037000005D028E0A0B23946FFF7E4FD23E0A0B2DF
:103710003946FFF7EFFD1EE0A878002802D0012807
:1037200005D018E0A0B23946FFF7F4FD13E0A0B2CF
:103730003946FFF7FFFD0EE0A878002802D00128E7
:1037400005D008E0A0B23946FFF704FE03E0A0B2BE
:103750003946FFF70FFE641CB442C1DBFFF7B0FE31
:10376000F8BD000038010020CC000020014908709D
:103770007047000024010020F0B585B00D460446D6
:103780001F46164614216846FDF7ECFC6846E0C06B
:103790000A980390002C06D0012C08D0022C0AD1E4
:1037A0006946064805E009206946C00601E0694609
:1037B0000348FDF739FE05B0F0BD000000140048D5
:1037C00000040048F0B58DB01C2106A8FDF7CAFC26
:1037D00018216846FDF7C6FC01204004FEF768FA90
:1037E0000120002540020224032601276946049592
:1037F000D1C10420059009206946C006FEF770FA81
:10380000600269460495D1C10420059009206946EB
:10381000C006FEF765FA2005FEF756FA01211720CB
:10382000FFF714F81720FFF705F8144CE068E113D0
:103830008843E0602068090188432060216878049B
:10384000814321600E480F4E069508950995079013
:1038500030780B9540000A9006A90C952046FEF79B
:10386000ABFA6068790608436060E0680649084082
:10387000E0603078FFF74EFE0DB0F0BD0054004020
:103880000E090020C100002001F8FFFFF0B5064638
:103890000D46081D0121890285B0884203D8FDF735
:1038A000AFFD002802D0002005B0F0BD00200121AE
:1038B000294C009002910390019403A96846FDF7FA
:1038C00007FD00283DD1254A002321460120FDF7B0
:1038D00059FD002835D12A460023A11C0120FDF7FF
:1038E00051FD00282DD100246F080FE060008119E0
:1038F0004A78097812020A4317490023091D411822
:103900000120FDF73FFD00281BD1641CA742EDDC20
:103910002846FFF78BFB00280BD070192038C27F98
:103920000D480023C01C29180120FDF72BFD00289D
:1039300007D10023084808E019180979F25C914280
:1039400002D0FDF715FDAEE75B1CAB42F4DBFDF7E3
:103950000FFD0120A8E70000003C000855AA000068
:1039600080390008C000002078000000D42800083A
:10397000F839000838010020C80C0000E4280008CD
:10398000020000000000000000000000FFFFFFFF39
:10399000FFFF01010101010101010101010101011B
:1039A000010101010101010101010000000000010C
:1039B000000200020000010040000200800004003C
:1039C000020008000100100002002000002000009A
:1039D00000000000000000000000000000000000E7
:1039E00000000000000000000100000004000000D2
:1039F0000000000000127A00FFFFFFFFFFFFFFFF43
:103A0000FFFFFFFFFFFFFFFFFFFFFFFFFFFFFFFFC6
:103A1000FFFFFFFFFFFFFFFFFFFFFFFFFFFFFFFFB6
:103A2000FFFFFFFFFFFFFFFFFFFFFFFFFFFFFFFFA6
:103A3000FFFFFFFFFFFFFFFFFFFFFFFFFFFFFFFF96
:103A4000FFFFFFFFFFFFFFFFFFFFFFFFFFFFFFFF86
:103A5000FFFFFFFFFFFFFFFFFFFFFFFFFFFFFFFF76
:103A6000FFFFFFFFFFFFFFFFFFFFFFFFFFFFFFFF66
:103A7000FFFFFFFFFFFFFFFFFFFFFFFFFFFFFFFF56
:103A8000FFFFFFFFFFFFFFFFFFFFFFFFFFFFFFFF46
:103A9000FFFFFFFFFFFFFFFFFFFFFFFFFFFFFFFF36
:103AA000FFFFFFFFFFFFFFFFFFFFFFFFFFFFFFFF26
:103AB000FFFFFFFFFFFFFFFFFFFFFFFFFFFFFFFF16
:103AC000FFFFFFFFFFFFFFFFFFFFFFFFFFFFFFFF06
:103AD000FFFFFFFFFFFFFFFFFFFFFFFFFFFFFFFFF6
:103AE000FFFFFFFFFFFFFFFFFFFFFFFFFFFFFFFFE6
:103AF000FFFFFFFFFFFFFFFFFFFFFFFFFFFFFFFFD6
:103B0000FFFFFFFFFFFFFFFFFFFFFFFFFFFFFFFFC5
:103B1000FFFFFFFFFFFFFFFFFFFFFFFFFFFFFFFFB5
:103B2000FFFFFFFFFFFFFFFFFFFFFFFFFFFFFFFFA5
:103B3000FFFFFFFFFFFFFFFFFFFFFFFFFFFFFFFF95
:103B4000FFFFFFFFFFFFFFFFFFFFFFFFFFFFFFFF85
:103B5000FFFFFFFFFFFFFFFFFFFFFFFFFFFFFFFF75
:103B6000FFFFFFFFFFFFFFFFFFFFFFFFFFFFFFFF65
:103B7000FFFFFFFFFFFFFFFFFFFFFFFFFFFFFFFF55
:103B8000FFFFFFFFFFFFFFFFFFFFFFFFFFFFFFFF45
:103B9000FFFFFFFFFFFFFFFFFFFFFFFFFFFFFFFF35
:103BA000FFFFFFFFFFFFFFFFFFFFFFFFFFFFFFFF25
:103BB000FFFFFFFFFFFFFFFFFFFFFFFFFFFFFFFF15
:103BC000FFFFFFFFFFFFFFFFFFFFFFFFFFFFFFFF05
:103BD000FFFFFFFFFFFFFFFFFFFFFFFFFFFFFFFFF5
:103BE000FFFFFFFFFFFFFFFFFFFFFFFFFFFFFFFFE5
:103BF000FFFFFFFFFFFFFFFFFFFFFFFFACDB41CE3B
:103C0000FFFFFFFFFFFFFFFFFFFFFFFFFFFFFFFFC4
:103C1000FFFFFFFFFFFFFFFFFFFFFFFFFFFFFFFFB4
:103C2000FFFFFFFFFFFFFFFFFFFFFFFFFFFFFFFFA4
:103C3000FFFFFFFFFFFFFFFFFFFFFFFFFFFFFFFF94
:00000001FF
